{
  "contractName": "CertificateVerification",
  "abi": [
    {
      "inputs": [],
      "stateMutability": "nonpayable",
      "type": "constructor"
    },
    {
      "inputs": [],
      "name": "owner",
      "outputs": [
        {
          "internalType": "address payable",
          "name": "",
          "type": "address"
        }
      ],
      "stateMutability": "view",
      "type": "function",
      "constant": true
    },
    {
      "inputs": [
        {
          "internalType": "string",
          "name": "ipfs_cid",
          "type": "string"
        }
      ],
      "name": "add_files",
      "outputs": [
        {
          "internalType": "bool",
          "name": "",
          "type": "bool"
        }
      ],
      "stateMutability": "nonpayable",
      "type": "function"
    },
    {
      "inputs": [
        {
          "internalType": "string",
          "name": "ipfs_cid",
          "type": "string"
        }
      ],
      "name": "verifyDocument",
      "outputs": [
        {
          "internalType": "bool",
          "name": "",
          "type": "bool"
        }
      ],
      "stateMutability": "nonpayable",
      "type": "function"
    },
    {
      "inputs": [
        {
          "internalType": "address",
          "name": "user",
          "type": "address"
        }
      ],
      "name": "verified",
      "outputs": [
        {
          "internalType": "bool",
          "name": "",
          "type": "bool"
        }
      ],
      "stateMutability": "view",
      "type": "function",
      "constant": true
    },
    {
      "inputs": [
        {
          "internalType": "address",
          "name": "user",
          "type": "address"
        }
      ],
      "name": "get_ipfs_cid",
      "outputs": [
        {
          "internalType": "string",
          "name": "",
          "type": "string"
        }
      ],
      "stateMutability": "view",
      "type": "function",
      "constant": true
    }
  ],
  "bytecode": "0x608060405234801561001057600080fd5b5033600460006101000a81548173ffffffffffffffffffffffffffffffffffffffff021916908373ffffffffffffffffffffffffffffffffffffffff160217905550610bd5806100616000396000f3fe608060405234801561001057600080fd5b50600436106100575760003560e01c80630a31b5f91461005c5780630db065f41461008c5780638da5cb5b146100bc5780639cee96ce146100da578063beee5eb71461010a575b600080fd5b61007660048036038101906100719190610611565b61013a565b6040516100839190610675565b60405180910390f35b6100a660048036038101906100a191906106ee565b61022e565b6040516100b39190610675565b60405180910390f35b6100c46102e0565b6040516100d1919061073c565b60405180910390f35b6100f460048036038101906100ef91906106ee565b610306565b60405161010191906107d6565b60405180910390f35b610124600480360381019061011f9190610611565b6103d7565b6040516101319190610675565b60405180910390f35b60003373ffffffffffffffffffffffffffffffffffffffff16600460009054906101000a900473ffffffffffffffffffffffffffffffffffffffff1673ffffffffffffffffffffffffffffffffffffffff16146101cc576040517f08c379a00000000000000000000000000000000000000000000000000000000081526004016101c390610844565b60405180910390fd5b600080836040516101dd91906108a0565b90815260200160405180910390205411156101fb5760009050610229565b60004290508060008460405161021191906108a0565b90815260200160405180910390208190555060019150505b919050565b6000600260008373ffffffffffffffffffffffffffffffffffffffff1673ffffffffffffffffffffffffffffffffffffffff16815260200190815260200160002060009054906101000a900460ff16156102d657600260008373ffffffffffffffffffffffffffffffffffffffff1673ffffffffffffffffffffffffffffffffffffffff16815260200190815260200160002060009054906101000a900460ff1690506102db565b600090505b919050565b600460009054906101000a900473ffffffffffffffffffffffffffffffffffffffff1681565b6060600360008373ffffffffffffffffffffffffffffffffffffffff1673ffffffffffffffffffffffffffffffffffffffff1681526020019081526020016000208054610352906108e6565b80601f016020809104026020016040519081016040528092919081815260200182805461037e906108e6565b80156103cb5780601f106103a0576101008083540402835291602001916103cb565b820191906000526020600020905b8154815290600101906020018083116103ae57829003601f168201915b50505050509050919050565b6000806000836040516103ea91906108a0565b90815260200160405180910390205411156104ad576001600260003373ffffffffffffffffffffffffffffffffffffffff1673ffffffffffffffffffffffffffffffffffffffff16815260200190815260200160002060006101000a81548160ff02191690831515021790555081600360003373ffffffffffffffffffffffffffffffffffffffff1673ffffffffffffffffffffffffffffffffffffffff16815260200190815260200160002090816104a39190610acd565b50600190506104b2565b600090505b919050565b6000604051905090565b600080fd5b600080fd5b600080fd5b600080fd5b6000601f19601f8301169050919050565b7f4e487b7100000000000000000000000000000000000000000000000000000000600052604160045260246000fd5b61051e826104d5565b810181811067ffffffffffffffff8211171561053d5761053c6104e6565b5b80604052505050565b60006105506104b7565b905061055c8282610515565b919050565b600067ffffffffffffffff82111561057c5761057b6104e6565b5b610585826104d5565b9050602081019050919050565b82818337600083830152505050565b60006105b46105af84610561565b610546565b9050828152602081018484840111156105d0576105cf6104d0565b5b6105db848285610592565b509392505050565b600082601f8301126105f8576105f76104cb565b5b81356106088482602086016105a1565b91505092915050565b600060208284031215610627576106266104c1565b5b600082013567ffffffffffffffff811115610645576106446104c6565b5b610651848285016105e3565b91505092915050565b60008115159050919050565b61066f8161065a565b82525050565b600060208201905061068a6000830184610666565b92915050565b600073ffffffffffffffffffffffffffffffffffffffff82169050919050565b60006106bb82610690565b9050919050565b6106cb816106b0565b81146106d657600080fd5b50565b6000813590506106e8816106c2565b92915050565b600060208284031215610704576107036104c1565b5b6000610712848285016106d9565b91505092915050565b600061072682610690565b9050919050565b6107368161071b565b82525050565b6000602082019050610751600083018461072d565b92915050565b600081519050919050565b600082825260208201905092915050565b60005b83811015610791578082015181840152602081019050610776565b60008484015250505050565b60006107a882610757565b6107b28185610762565b93506107c2818560208601610773565b6107cb816104d5565b840191505092915050565b600060208201905081810360008301526107f0818461079d565b905092915050565b7f53656e646572206973206e6f74206f776e657200000000000000000000000000600082015250565b600061082e601383610762565b9150610839826107f8565b602082019050919050565b6000602082019050818103600083015261085d81610821565b9050919050565b600081905092915050565b600061087a82610757565b6108848185610864565b9350610894818560208601610773565b80840191505092915050565b60006108ac828461086f565b915081905092915050565b7f4e487b7100000000000000000000000000000000000000000000000000000000600052602260045260246000fd5b600060028204905060018216806108fe57607f821691505b602082108103610911576109106108b7565b5b50919050565b60008190508160005260206000209050919050565b60006020601f8301049050919050565b600082821b905092915050565b6000600883026109797fffffffffffffffffffffffffffffffffffffffffffffffffffffffffffffffff8261093c565b610983868361093c565b95508019841693508086168417925050509392505050565b6000819050919050565b6000819050919050565b60006109ca6109c56109c08461099b565b6109a5565b61099b565b9050919050565b6000819050919050565b6109e4836109af565b6109f86109f0826109d1565b848454610949565b825550505050565b600090565b610a0d610a00565b610a188184846109db565b505050565b5b81811015610a3c57610a31600082610a05565b600181019050610a1e565b5050565b601f821115610a8157610a5281610917565b610a5b8461092c565b81016020851015610a6a578190505b610a7e610a768561092c565b830182610a1d565b50505b505050565b600082821c905092915050565b6000610aa460001984600802610a86565b1980831691505092915050565b6000610abd8383610a93565b9150826002028217905092915050565b610ad682610757565b67ffffffffffffffff811115610aef57610aee6104e6565b5b610af982546108e6565b610b04828285610a40565b600060209050601f831160018114610b375760008415610b25578287015190505b610b2f8582610ab1565b865550610b97565b601f198416610b4586610917565b60005b82811015610b6d57848901518255600182019150602085019450602081019050610b48565b86831015610b8a5784890151610b86601f891682610a93565b8355505b6001600288020188555050505b50505050505056fea2646970667358221220ef41712b5d1b2e29da23057a24458c8a1f95ec6016a4cce670909e413693f22164736f6c63430008110033",
  "immutableReferences": {},
  "source": "// SPDX-License-Identifier: MIT\r\npragma solidity >=0.4.1;\r\n\r\ncontract CertificateVerification {\r\n\r\n    mapping(string => uint) documentAddTimeMap; //contains when documents was added\r\n    mapping(string => address) documentAddKeyMap; //contains public key of the user\r\n    mapping(address => bool) verifiedUser; //contains verified users \r\n    mapping(address => string) userFilesCid; //contains user's ipfs\r\n    address payable public owner;\r\n\r\n    constructor() {\r\n        owner = payable(msg.sender);\r\n    }\r\n\r\n    //setting the user who deployed this contract as owner\r\n    modifier owner_check(){\r\n        require(owner == msg.sender, \"Sender is not owner\");\r\n        _;\r\n    }\r\n\r\n    //only owner can add files to the contract\r\n    function add_files(string memory ipfs_cid) public owner_check returns(bool) {\r\n        //check if already added\r\n        if (documentAddTimeMap[ipfs_cid] > 0) {\r\n            return false;\r\n        }\r\n        //add now\r\n        uint timeAdded = block.timestamp;\r\n        documentAddTimeMap[ipfs_cid] = timeAdded;\r\n        return true;\r\n    }\r\n\r\n    //this will verify user's uploaded document\r\n    function verifyDocument(string memory ipfs_cid) public returns (bool){\r\n        if (documentAddTimeMap[ipfs_cid] > 0) {\r\n            verifiedUser[msg.sender] = true;\r\n            userFilesCid[msg.sender] = ipfs_cid;\r\n            return true;\r\n        }\r\n        return false;\r\n    }\r\n\r\n    //give true to the verified files\r\n    function verified(address user) public view returns(bool){\r\n        if(verifiedUser[user]){\r\n            return verifiedUser[user];\r\n        }else{\r\n            return false;\r\n        }\r\n    }\r\n\r\n    //when the user will click university then his/her address will come here and return me the ipfs cid.. \r\n    function get_ipfs_cid(address user) public view returns(string memory){\r\n        return userFilesCid[user];\r\n    }\r\n}\r\n",
  "sourcePath": "D:\\Blockchain Development\\System Project\\document-verification-system\\contract\\contracts\\CertificateVerification.sol",
  "compiler": {
    "name": "solc",
    "version": "0.8.17+commit.8df45f5f.Emscripten.clang"
  },
  "schemaVersion": "3.4.10",
  "updatedAt": "2022-11-30T18:19:18.026Z",
  "networkType": "ethereum",
  "devdoc": {
    "kind": "dev",
    "methods": {},
    "version": 1
  },
  "userdoc": {
    "kind": "user",
    "methods": {},
    "version": 1
  }
}