{
  "contractName": "CertificateVerification",
  "abi": [
    {
      "inputs": [],
      "stateMutability": "nonpayable",
      "type": "constructor"
    },
    {
      "inputs": [],
      "name": "owner",
      "outputs": [
        {
          "internalType": "address payable",
          "name": "",
          "type": "address"
        }
      ],
      "stateMutability": "view",
      "type": "function",
      "constant": true
    },
    {
      "inputs": [
        {
          "internalType": "string",
          "name": "ipfs_cid",
          "type": "string"
        }
      ],
      "name": "add_files",
      "outputs": [
        {
          "internalType": "string",
          "name": "",
          "type": "string"
        }
      ],
      "stateMutability": "view",
      "type": "function",
      "constant": true
    },
    {
      "inputs": [
        {
          "internalType": "string",
          "name": "ipfs_cid",
          "type": "string"
        }
      ],
      "name": "verifyDocument",
      "outputs": [
        {
          "internalType": "bool",
          "name": "",
          "type": "bool"
        }
      ],
      "stateMutability": "nonpayable",
      "type": "function"
    },
    {
      "inputs": [
        {
          "internalType": "address",
          "name": "user",
          "type": "address"
        }
      ],
      "name": "verified",
      "outputs": [
        {
          "internalType": "bool",
          "name": "",
          "type": "bool"
        }
      ],
      "stateMutability": "view",
      "type": "function",
      "constant": true
    },
    {
      "inputs": [
        {
          "internalType": "address",
          "name": "user",
          "type": "address"
        }
      ],
      "name": "get_ipfs_cid",
      "outputs": [
        {
          "internalType": "string",
          "name": "",
          "type": "string"
        }
      ],
      "stateMutability": "view",
      "type": "function",
      "constant": true
    }
  ],
  "bytecode": "0x608060405234801561001057600080fd5b5033600460006101000a81548173ffffffffffffffffffffffffffffffffffffffff021916908373ffffffffffffffffffffffffffffffffffffffff160217905550610b7b806100616000396000f3fe608060405234801561001057600080fd5b50600436106100575760003560e01c80630a31b5f91461005c5780630db065f41461008c5780638da5cb5b146100bc5780639cee96ce146100da578063beee5eb71461010a575b600080fd5b610076600480360381019061007191906105b7565b61013a565b604051610083919061067f565b60405180910390f35b6100a660048036038101906100a191906106ff565b6101d4565b6040516100b39190610747565b60405180910390f35b6100c4610286565b6040516100d19190610783565b60405180910390f35b6100f460048036038101906100ef91906106ff565b6102ac565b604051610101919061067f565b60405180910390f35b610124600480360381019061011f91906105b7565b61037d565b6040516101319190610747565b60405180910390f35b60603373ffffffffffffffffffffffffffffffffffffffff16600460009054906101000a900473ffffffffffffffffffffffffffffffffffffffff1673ffffffffffffffffffffffffffffffffffffffff16146101cc576040517f08c379a00000000000000000000000000000000000000000000000000000000081526004016101c3906107ea565b60405180910390fd5b819050919050565b6000600260008373ffffffffffffffffffffffffffffffffffffffff1673ffffffffffffffffffffffffffffffffffffffff16815260200190815260200160002060009054906101000a900460ff161561027c57600260008373ffffffffffffffffffffffffffffffffffffffff1673ffffffffffffffffffffffffffffffffffffffff16815260200190815260200160002060009054906101000a900460ff169050610281565b600090505b919050565b600460009054906101000a900473ffffffffffffffffffffffffffffffffffffffff1681565b6060600360008373ffffffffffffffffffffffffffffffffffffffff1673ffffffffffffffffffffffffffffffffffffffff16815260200190815260200160002080546102f890610839565b80601f016020809104026020016040519081016040528092919081815260200182805461032490610839565b80156103715780601f1061034657610100808354040283529160200191610371565b820191906000526020600020905b81548152906001019060200180831161035457829003601f168201915b50505050509050919050565b60008060008360405161039091906108a6565b9081526020016040518091039020541115610453576001600260003373ffffffffffffffffffffffffffffffffffffffff1673ffffffffffffffffffffffffffffffffffffffff16815260200190815260200160002060006101000a81548160ff02191690831515021790555081600360003373ffffffffffffffffffffffffffffffffffffffff1673ffffffffffffffffffffffffffffffffffffffff16815260200190815260200160002090816104499190610a73565b5060019050610458565b600090505b919050565b6000604051905090565b600080fd5b600080fd5b600080fd5b600080fd5b6000601f19601f8301169050919050565b7f4e487b7100000000000000000000000000000000000000000000000000000000600052604160045260246000fd5b6104c48261047b565b810181811067ffffffffffffffff821117156104e3576104e261048c565b5b80604052505050565b60006104f661045d565b905061050282826104bb565b919050565b600067ffffffffffffffff8211156105225761052161048c565b5b61052b8261047b565b9050602081019050919050565b82818337600083830152505050565b600061055a61055584610507565b6104ec565b90508281526020810184848401111561057657610575610476565b5b610581848285610538565b509392505050565b600082601f83011261059e5761059d610471565b5b81356105ae848260208601610547565b91505092915050565b6000602082840312156105cd576105cc610467565b5b600082013567ffffffffffffffff8111156105eb576105ea61046c565b5b6105f784828501610589565b91505092915050565b600081519050919050565b600082825260208201905092915050565b60005b8381101561063a57808201518184015260208101905061061f565b60008484015250505050565b600061065182610600565b61065b818561060b565b935061066b81856020860161061c565b6106748161047b565b840191505092915050565b600060208201905081810360008301526106998184610646565b905092915050565b600073ffffffffffffffffffffffffffffffffffffffff82169050919050565b60006106cc826106a1565b9050919050565b6106dc816106c1565b81146106e757600080fd5b50565b6000813590506106f9816106d3565b92915050565b60006020828403121561071557610714610467565b5b6000610723848285016106ea565b91505092915050565b60008115159050919050565b6107418161072c565b82525050565b600060208201905061075c6000830184610738565b92915050565b600061076d826106a1565b9050919050565b61077d81610762565b82525050565b60006020820190506107986000830184610774565b92915050565b7f53656e646572206973206e6f74206f776e657200000000000000000000000000600082015250565b60006107d460138361060b565b91506107df8261079e565b602082019050919050565b60006020820190508181036000830152610803816107c7565b9050919050565b7f4e487b7100000000000000000000000000000000000000000000000000000000600052602260045260246000fd5b6000600282049050600182168061085157607f821691505b6020821081036108645761086361080a565b5b50919050565b600081905092915050565b600061088082610600565b61088a818561086a565b935061089a81856020860161061c565b80840191505092915050565b60006108b28284610875565b915081905092915050565b60008190508160005260206000209050919050565b60006020601f8301049050919050565b600082821b905092915050565b60006008830261091f7fffffffffffffffffffffffffffffffffffffffffffffffffffffffffffffffff826108e2565b61092986836108e2565b95508019841693508086168417925050509392505050565b6000819050919050565b6000819050919050565b600061097061096b61096684610941565b61094b565b610941565b9050919050565b6000819050919050565b61098a83610955565b61099e61099682610977565b8484546108ef565b825550505050565b600090565b6109b36109a6565b6109be818484610981565b505050565b5b818110156109e2576109d76000826109ab565b6001810190506109c4565b5050565b601f821115610a27576109f8816108bd565b610a01846108d2565b81016020851015610a10578190505b610a24610a1c856108d2565b8301826109c3565b50505b505050565b600082821c905092915050565b6000610a4a60001984600802610a2c565b1980831691505092915050565b6000610a638383610a39565b9150826002028217905092915050565b610a7c82610600565b67ffffffffffffffff811115610a9557610a9461048c565b5b610a9f8254610839565b610aaa8282856109e6565b600060209050601f831160018114610add5760008415610acb578287015190505b610ad58582610a57565b865550610b3d565b601f198416610aeb866108bd565b60005b82811015610b1357848901518255600182019150602085019450602081019050610aee565b86831015610b305784890151610b2c601f891682610a39565b8355505b6001600288020188555050505b50505050505056fea26469706673582212206acb232271b73345f9fc02bec8be20810c8f5c96384f1754f9d47736dc268a3b64736f6c63430008110033",
  "immutableReferences": {},
  "source": "// SPDX-License-Identifier: MIT\r\npragma solidity >=0.4.1;\r\n\r\ncontract CertificateVerification {\r\n\r\n    mapping(string => uint256) documentAddTimeMap; //contains when documents was added\r\n    mapping(string => address) documentAddKeyMap; //contains public key of the user\r\n    mapping(address => bool) verifiedUser; //contains verified users \r\n    mapping(address => string) userFilesCid; //contains user's ipfs\r\n    address payable public owner;\r\n\r\n    constructor() {\r\n        owner = payable(msg.sender);\r\n    }\r\n\r\n    //setting the user who deployed this contract as owner\r\n    modifier owner_check(){\r\n        require(owner == msg.sender, \"Sender is not owner\");\r\n        _;\r\n    }\r\n\r\n    //only owner can add files to the contract\r\n    function add_files(string memory ipfs_cid) public view owner_check returns(string memory){\r\n        //check if already added\r\n        return ipfs_cid;\r\n        // if (documentAddTimeMap[ipfs_cid] > 0) {\r\n        //     //already added by someone else\r\n        //     return documentAddTimeMap[ipfs_cid];\r\n        // }\r\n        // //add now\r\n        // uint256 timeAdded = block.timestamp;\r\n        // documentAddTimeMap[ipfs_cid] = timeAdded;\r\n        // return documentAddTimeMap[ipfs_cid];\r\n    }\r\n\r\n    //this will verify user's uploaded document\r\n    function verifyDocument(string memory ipfs_cid) public returns (bool){\r\n        if (documentAddTimeMap[ipfs_cid] > 0) {\r\n            verifiedUser[msg.sender] = true;\r\n            userFilesCid[msg.sender] = ipfs_cid;\r\n            return true;\r\n        }\r\n        return false;\r\n    }\r\n\r\n    //give true to the verified files\r\n    function verified(address user) public view returns(bool){\r\n        if(verifiedUser[user]){\r\n            return verifiedUser[user];\r\n        }else{\r\n            return false;\r\n        }\r\n    }\r\n\r\n    //when the user will click university then his/her address will come here and return me the ipfs cid.. \r\n    function get_ipfs_cid(address user) public view returns(string memory){\r\n        return userFilesCid[user];\r\n    }\r\n}\r\n",
  "sourcePath": "D:\\Blockchain Development\\System Project\\document-verification-system\\contract\\contracts\\CertificateVerification.sol",
  "compiler": {
    "name": "solc",
    "version": "0.8.17+commit.8df45f5f.Emscripten.clang"
  },
  "schemaVersion": "3.4.10",
  "updatedAt": "2022-12-11T14:53:02.044Z",
  "networkType": "ethereum",
  "devdoc": {
    "kind": "dev",
    "methods": {},
    "version": 1
  },
  "userdoc": {
    "kind": "user",
    "methods": {},
    "version": 1
  }
}