{
  "contractName": "CertificateVerification",
  "abi": [
    {
      "inputs": [],
      "stateMutability": "nonpayable",
      "type": "constructor"
    },
    {
      "anonymous": false,
      "inputs": [
        {
          "indexed": false,
          "internalType": "string",
          "name": "",
          "type": "string"
        }
      ],
      "name": "outputCid",
      "type": "event"
    },
    {
      "anonymous": false,
      "inputs": [
        {
          "indexed": false,
          "internalType": "bool",
          "name": "",
          "type": "bool"
        }
      ],
      "name": "outputResult",
      "type": "event"
    },
    {
      "inputs": [],
      "name": "owner",
      "outputs": [
        {
          "internalType": "address payable",
          "name": "",
          "type": "address"
        }
      ],
      "stateMutability": "view",
      "type": "function",
      "constant": true
    },
    {
      "inputs": [
        {
          "internalType": "string",
          "name": "ipfs_cid",
          "type": "string"
        }
      ],
      "name": "add_files",
      "outputs": [
        {
          "internalType": "bool",
          "name": "",
          "type": "bool"
        }
      ],
      "stateMutability": "nonpayable",
      "type": "function"
    },
    {
      "inputs": [
        {
          "internalType": "string",
          "name": "ipfs_cid",
          "type": "string"
        }
      ],
      "name": "verifyDocument",
      "outputs": [
        {
          "internalType": "bool",
          "name": "",
          "type": "bool"
        }
      ],
      "stateMutability": "nonpayable",
      "type": "function"
    },
    {
      "inputs": [
        {
          "internalType": "string",
          "name": "ipfs_cid",
          "type": "string"
        }
      ],
      "name": "verifyApplyDocument",
      "outputs": [
        {
          "internalType": "bool",
          "name": "",
          "type": "bool"
        }
      ],
      "stateMutability": "nonpayable",
      "type": "function"
    },
    {
      "inputs": [
        {
          "internalType": "address",
          "name": "user",
          "type": "address"
        }
      ],
      "name": "verified",
      "outputs": [
        {
          "internalType": "bool",
          "name": "",
          "type": "bool"
        }
      ],
      "stateMutability": "view",
      "type": "function",
      "constant": true
    },
    {
      "inputs": [],
      "name": "get_ipfs_cid",
      "outputs": [
        {
          "internalType": "string",
          "name": "",
          "type": "string"
        }
      ],
      "stateMutability": "nonpayable",
      "type": "function"
    }
  ],
  "bytecode": "0x608060405234801561001057600080fd5b5033600460006101000a81548173ffffffffffffffffffffffffffffffffffffffff021916908373ffffffffffffffffffffffffffffffffffffffff160217905550611116806100616000396000f3fe608060405234801561001057600080fd5b50600436106100625760003560e01c80630a31b5f9146100675780630db065f4146100975780637f33f9a6146100c75780638da5cb5b146100e5578063beee5eb714610103578063d1c26dc214610133575b600080fd5b610081600480360381019061007c9190610a40565b610163565b60405161008e9190610aa4565b60405180910390f35b6100b160048036038101906100ac9190610b1d565b6102c7565b6040516100be9190610aa4565b60405180910390f35b6100cf610379565b6040516100dc9190610bc9565b60405180910390f35b6100ed61054d565b6040516100fa9190610c0c565b60405180910390f35b61011d60048036038101906101189190610a40565b610573565b60405161012a9190610aa4565b60405180910390f35b61014d60048036038101906101489190610a40565b610706565b60405161015a9190610aa4565b60405180910390f35b60003373ffffffffffffffffffffffffffffffffffffffff16600460009054906101000a900473ffffffffffffffffffffffffffffffffffffffff1673ffffffffffffffffffffffffffffffffffffffff16146101f5576040517f08c379a00000000000000000000000000000000000000000000000000000000081526004016101ec90610c73565b60405180910390fd5b600080836040516102069190610ccf565b908152602001604051809103902054111561025c577fe18be9342ca44ff782744d7ca17812cdd4aa686f690025f99c8faf60564e8ff7600060405161024b9190610aa4565b60405180910390a1600090506102c2565b6000429050806000846040516102729190610ccf565b9081526020016040518091039020819055507fe18be9342ca44ff782744d7ca17812cdd4aa686f690025f99c8faf60564e8ff760016040516102b49190610aa4565b60405180910390a160019150505b919050565b6000600260008373ffffffffffffffffffffffffffffffffffffffff1673ffffffffffffffffffffffffffffffffffffffff16815260200190815260200160002060009054906101000a900460ff161561036f57600260008373ffffffffffffffffffffffffffffffffffffffff1673ffffffffffffffffffffffffffffffffffffffff16815260200190815260200160002060009054906101000a900460ff169050610374565b600090505b919050565b6060600460009054906101000a900473ffffffffffffffffffffffffffffffffffffffff1673ffffffffffffffffffffffffffffffffffffffff163373ffffffffffffffffffffffffffffffffffffffff160361040b576040517f08c379a000000000000000000000000000000000000000000000000000000000815260040161040290610d32565b60405180910390fd5b7fa20844b5a535c011322625ae0480b648a7b40cede27cfd9fef1ddfd786a5a667600360003373ffffffffffffffffffffffffffffffffffffffff1673ffffffffffffffffffffffffffffffffffffffff1681526020019081526020016000206040516104789190610e4b565b60405180910390a1600360003373ffffffffffffffffffffffffffffffffffffffff1673ffffffffffffffffffffffffffffffffffffffff16815260200190815260200160002080546104ca90610d81565b80601f01602080910402602001604051908101604052809291908181526020018280546104f690610d81565b80156105435780601f1061051857610100808354040283529160200191610543565b820191906000526020600020905b81548152906001019060200180831161052657829003601f168201915b5050505050905090565b600460009054906101000a900473ffffffffffffffffffffffffffffffffffffffff1681565b6000600460009054906101000a900473ffffffffffffffffffffffffffffffffffffffff1673ffffffffffffffffffffffffffffffffffffffff163373ffffffffffffffffffffffffffffffffffffffff1603610605576040517f08c379a00000000000000000000000000000000000000000000000000000000081526004016105fc90610d32565b60405180910390fd5b600080836040516106169190610ccf565b90815260200160405180910390205411156106c4576001600260003373ffffffffffffffffffffffffffffffffffffffff1673ffffffffffffffffffffffffffffffffffffffff16815260200190815260200160002060006101000a81548160ff0219169083151502179055507fe18be9342ca44ff782744d7ca17812cdd4aa686f690025f99c8faf60564e8ff760016040516106b39190610aa4565b60405180910390a160019050610701565b7fe18be9342ca44ff782744d7ca17812cdd4aa686f690025f99c8faf60564e8ff760006040516106f49190610aa4565b60405180910390a1600090505b919050565b6000600460009054906101000a900473ffffffffffffffffffffffffffffffffffffffff1673ffffffffffffffffffffffffffffffffffffffff163373ffffffffffffffffffffffffffffffffffffffff1603610798576040517f08c379a000000000000000000000000000000000000000000000000000000000815260040161078f90610d32565b60405180910390fd5b600080836040516107a99190610ccf565b90815260200160405180910390205411156108a4576001600260003373ffffffffffffffffffffffffffffffffffffffff1673ffffffffffffffffffffffffffffffffffffffff16815260200190815260200160002060006101000a81548160ff02191690831515021790555081600360003373ffffffffffffffffffffffffffffffffffffffff1673ffffffffffffffffffffffffffffffffffffffff1681526020019081526020016000209081610862919061100e565b507fe18be9342ca44ff782744d7ca17812cdd4aa686f690025f99c8faf60564e8ff760016040516108939190610aa4565b60405180910390a1600190506108e1565b7fe18be9342ca44ff782744d7ca17812cdd4aa686f690025f99c8faf60564e8ff760006040516108d49190610aa4565b60405180910390a1600090505b919050565b6000604051905090565b600080fd5b600080fd5b600080fd5b600080fd5b6000601f19601f8301169050919050565b7f4e487b7100000000000000000000000000000000000000000000000000000000600052604160045260246000fd5b61094d82610904565b810181811067ffffffffffffffff8211171561096c5761096b610915565b5b80604052505050565b600061097f6108e6565b905061098b8282610944565b919050565b600067ffffffffffffffff8211156109ab576109aa610915565b5b6109b482610904565b9050602081019050919050565b82818337600083830152505050565b60006109e36109de84610990565b610975565b9050828152602081018484840111156109ff576109fe6108ff565b5b610a0a8482856109c1565b509392505050565b600082601f830112610a2757610a266108fa565b5b8135610a378482602086016109d0565b91505092915050565b600060208284031215610a5657610a556108f0565b5b600082013567ffffffffffffffff811115610a7457610a736108f5565b5b610a8084828501610a12565b91505092915050565b60008115159050919050565b610a9e81610a89565b82525050565b6000602082019050610ab96000830184610a95565b92915050565b600073ffffffffffffffffffffffffffffffffffffffff82169050919050565b6000610aea82610abf565b9050919050565b610afa81610adf565b8114610b0557600080fd5b50565b600081359050610b1781610af1565b92915050565b600060208284031215610b3357610b326108f0565b5b6000610b4184828501610b08565b91505092915050565b600081519050919050565b600082825260208201905092915050565b60005b83811015610b84578082015181840152602081019050610b69565b60008484015250505050565b6000610b9b82610b4a565b610ba58185610b55565b9350610bb5818560208601610b66565b610bbe81610904565b840191505092915050565b60006020820190508181036000830152610be38184610b90565b905092915050565b6000610bf682610abf565b9050919050565b610c0681610beb565b82525050565b6000602082019050610c216000830184610bfd565b92915050565b7f53656e646572206973206e6f74206f776e657200000000000000000000000000600082015250565b6000610c5d601383610b55565b9150610c6882610c27565b602082019050919050565b60006020820190508181036000830152610c8c81610c50565b9050919050565b600081905092915050565b6000610ca982610b4a565b610cb38185610c93565b9350610cc3818560208601610b66565b80840191505092915050565b6000610cdb8284610c9e565b915081905092915050565b7f53656e646572206861766520746f20626520612073747564656e740000000000600082015250565b6000610d1c601b83610b55565b9150610d2782610ce6565b602082019050919050565b60006020820190508181036000830152610d4b81610d0f565b9050919050565b7f4e487b7100000000000000000000000000000000000000000000000000000000600052602260045260246000fd5b60006002820490506001821680610d9957607f821691505b602082108103610dac57610dab610d52565b5b50919050565b60008190508160005260206000209050919050565b60008154610dd481610d81565b610dde8186610b55565b94506001821660008114610df95760018114610e0f57610e42565b60ff198316865281151560200286019350610e42565b610e1885610db2565b60005b83811015610e3a57815481890152600182019150602081019050610e1b565b808801955050505b50505092915050565b60006020820190508181036000830152610e658184610dc7565b905092915050565b60006020601f8301049050919050565b600082821b905092915050565b600060088302610eba7fffffffffffffffffffffffffffffffffffffffffffffffffffffffffffffffff82610e7d565b610ec48683610e7d565b95508019841693508086168417925050509392505050565b6000819050919050565b6000819050919050565b6000610f0b610f06610f0184610edc565b610ee6565b610edc565b9050919050565b6000819050919050565b610f2583610ef0565b610f39610f3182610f12565b848454610e8a565b825550505050565b600090565b610f4e610f41565b610f59818484610f1c565b505050565b5b81811015610f7d57610f72600082610f46565b600181019050610f5f565b5050565b601f821115610fc257610f9381610db2565b610f9c84610e6d565b81016020851015610fab578190505b610fbf610fb785610e6d565b830182610f5e565b50505b505050565b600082821c905092915050565b6000610fe560001984600802610fc7565b1980831691505092915050565b6000610ffe8383610fd4565b9150826002028217905092915050565b61101782610b4a565b67ffffffffffffffff8111156110305761102f610915565b5b61103a8254610d81565b611045828285610f81565b600060209050601f8311600181146110785760008415611066578287015190505b6110708582610ff2565b8655506110d8565b601f19841661108686610db2565b60005b828110156110ae57848901518255600182019150602085019450602081019050611089565b868310156110cb57848901516110c7601f891682610fd4565b8355505b6001600288020188555050505b50505050505056fea264697066735822122060d28095ef55b4233ae73dcf19933c378eac87ce5ba90c4b866b4b9539c87a8e64736f6c63430008110033",
  "immutableReferences": {},
  "source": "// SPDX-License-Identifier: MIT\r\npragma solidity >=0.4.1;\r\n\r\ncontract CertificateVerification {\r\n\r\n    event outputResult(bool);\r\n    event outputCid(string);\r\n\r\n    mapping(string => uint256) documentAddTimeMap; //contains when documents was added\r\n    mapping(string => address) documentAddKeyMap; //contains public key of the user\r\n    mapping(address => bool) verifiedUser; //contains verified users \r\n    mapping(address => string) userFilesCid; //contains user's ipfs\r\n    address payable public owner;\r\n\r\n    constructor() {\r\n        owner = payable(msg.sender);\r\n    }\r\n\r\n    //setting the user who deployed this contract as owner\r\n    modifier owner_check(){\r\n        require(owner == msg.sender, \"Sender is not owner\");\r\n        _;\r\n    }\r\n\r\n    //only student can verify files\r\n    modifier student_check(){\r\n        require(msg.sender != owner, \"Sender have to be a student\");\r\n        _;\r\n    }\r\n\r\n    //only owner can add files to the contract\r\n    function add_files(string memory ipfs_cid) public owner_check returns(bool){\r\n        if (documentAddTimeMap[ipfs_cid] > 0) {\r\n            emit outputResult(false);\r\n            return false;\r\n        }\r\n        //add now\r\n        uint256 timeAdded = block.timestamp;\r\n        documentAddTimeMap[ipfs_cid] = timeAdded;\r\n        emit outputResult(true);\r\n        return true;\r\n    }\r\n\r\n    //this will verify user's uploaded document\r\n    function verifyDocument(string memory ipfs_cid) public student_check returns(bool){\r\n        if (documentAddTimeMap[ipfs_cid] > 0) {\r\n            verifiedUser[msg.sender] = true;\r\n            emit outputResult(true);\r\n            return true;\r\n        }\r\n        emit outputResult(false);\r\n        return false;\r\n    }\r\n\r\n    //this is for verify and apply button\r\n    function verifyApplyDocument(string memory ipfs_cid) public student_check returns(bool){\r\n        if (documentAddTimeMap[ipfs_cid] > 0) {\r\n            verifiedUser[msg.sender] = true;\r\n            userFilesCid[msg.sender] = ipfs_cid;\r\n            emit outputResult(true);\r\n            return true;\r\n        }\r\n        emit outputResult(false);\r\n        return false;\r\n    }\r\n\r\n    //give true to the verified files\r\n    function verified(address user) public view returns(bool){\r\n        if(verifiedUser[user]){\r\n            return verifiedUser[user];\r\n        }else{\r\n            return false;\r\n        }\r\n    }\r\n\r\n    //when the user will click university then his/her address will come here and return me the ipfs cid.. \r\n    function get_ipfs_cid() public student_check returns(string memory){\r\n        emit outputCid(userFilesCid[msg.sender]);\r\n        return userFilesCid[msg.sender];\r\n    }\r\n}\r\n",
  "sourcePath": "D:\\Blockchain Development\\System Project\\document-verification-system\\contract\\contracts\\CertificateVerification.sol",
  "compiler": {
    "name": "solc",
    "version": "0.8.17+commit.8df45f5f.Emscripten.clang"
  },
  "schemaVersion": "3.4.10",
  "updatedAt": "2022-12-28T06:35:54.743Z",
  "networkType": "ethereum",
  "devdoc": {
    "kind": "dev",
    "methods": {},
    "version": 1
  },
  "userdoc": {
    "kind": "user",
    "methods": {},
    "version": 1
  }
}