{
  "contractName": "CertificateVerification",
  "abi": [
    {
      "inputs": [],
      "stateMutability": "nonpayable",
      "type": "constructor"
    },
    {
      "anonymous": false,
      "inputs": [
        {
          "indexed": false,
          "internalType": "string",
          "name": "",
          "type": "string"
        }
      ],
      "name": "outputCid",
      "type": "event"
    },
    {
      "anonymous": false,
      "inputs": [
        {
          "indexed": false,
          "internalType": "bool",
          "name": "",
          "type": "bool"
        }
      ],
      "name": "outputHash",
      "type": "event"
    },
    {
      "anonymous": false,
      "inputs": [
        {
          "indexed": false,
          "internalType": "bool",
          "name": "",
          "type": "bool"
        }
      ],
      "name": "outputResult",
      "type": "event"
    },
    {
      "inputs": [],
      "name": "owner",
      "outputs": [
        {
          "internalType": "address payable",
          "name": "",
          "type": "address"
        }
      ],
      "stateMutability": "view",
      "type": "function",
      "constant": true
    },
    {
      "inputs": [
        {
          "internalType": "string",
          "name": "ipfs_cid",
          "type": "string"
        }
      ],
      "name": "add_files",
      "outputs": [
        {
          "internalType": "bool",
          "name": "",
          "type": "bool"
        }
      ],
      "stateMutability": "nonpayable",
      "type": "function"
    },
    {
      "inputs": [
        {
          "internalType": "string",
          "name": "ipfs_cid",
          "type": "string"
        }
      ],
      "name": "verifyDocument",
      "outputs": [
        {
          "internalType": "bool",
          "name": "",
          "type": "bool"
        }
      ],
      "stateMutability": "nonpayable",
      "type": "function"
    },
    {
      "inputs": [
        {
          "internalType": "string",
          "name": "ipfs_cid",
          "type": "string"
        }
      ],
      "name": "verifyApplyDocument",
      "outputs": [
        {
          "internalType": "bool",
          "name": "",
          "type": "bool"
        }
      ],
      "stateMutability": "nonpayable",
      "type": "function"
    },
    {
      "inputs": [
        {
          "internalType": "address",
          "name": "user",
          "type": "address"
        }
      ],
      "name": "verified",
      "outputs": [
        {
          "internalType": "bool",
          "name": "",
          "type": "bool"
        }
      ],
      "stateMutability": "view",
      "type": "function",
      "constant": true
    },
    {
      "inputs": [],
      "name": "get_ipfs_cid",
      "outputs": [
        {
          "internalType": "string",
          "name": "",
          "type": "string"
        }
      ],
      "stateMutability": "nonpayable",
      "type": "function"
    }
  ],
  "bytecode": "0x608060405234801561001057600080fd5b5033600560006101000a81548173ffffffffffffffffffffffffffffffffffffffff021916908373ffffffffffffffffffffffffffffffffffffffff1602179055506110ec806100616000396000f3fe608060405234801561001057600080fd5b50600436106100625760003560e01c80630a31b5f9146100675780630db065f4146100975780637f33f9a6146100c75780638da5cb5b146100e5578063beee5eb714610103578063d1c26dc214610133575b600080fd5b610081600480360381019061007c9190610a16565b610163565b60405161008e9190610a7a565b60405180910390f35b6100b160048036038101906100ac9190610af3565b6102df565b6040516100be9190610a7a565b60405180910390f35b6100cf610391565b6040516100dc9190610b9f565b60405180910390f35b6100ed610565565b6040516100fa9190610be2565b60405180910390f35b61011d60048036038101906101189190610a16565b61058b565b60405161012a9190610a7a565b60405180910390f35b61014d60048036038101906101489190610a16565b6106d1565b60405161015a9190610a7a565b60405180910390f35b60003373ffffffffffffffffffffffffffffffffffffffff16600560009054906101000a900473ffffffffffffffffffffffffffffffffffffffff1673ffffffffffffffffffffffffffffffffffffffff16146101f5576040517f08c379a00000000000000000000000000000000000000000000000000000000081526004016101ec90610c49565b60405180910390fd5b6004826040516102059190610ca5565b908152602001604051809103902060009054906101000a900460ff1661029d5760016004836040516102379190610ca5565b908152602001604051809103902060006101000a81548160ff0219169083151502179055507fe18be9342ca44ff782744d7ca17812cdd4aa686f690025f99c8faf60564e8ff7600160405161028c9190610a7a565b60405180910390a1600190506102da565b7fe18be9342ca44ff782744d7ca17812cdd4aa686f690025f99c8faf60564e8ff760006040516102cd9190610a7a565b60405180910390a1600090505b919050565b6000600260008373ffffffffffffffffffffffffffffffffffffffff1673ffffffffffffffffffffffffffffffffffffffff16815260200190815260200160002060009054906101000a900460ff161561038757600260008373ffffffffffffffffffffffffffffffffffffffff1673ffffffffffffffffffffffffffffffffffffffff16815260200190815260200160002060009054906101000a900460ff16905061038c565b600090505b919050565b6060600560009054906101000a900473ffffffffffffffffffffffffffffffffffffffff1673ffffffffffffffffffffffffffffffffffffffff163373ffffffffffffffffffffffffffffffffffffffff1603610423576040517f08c379a000000000000000000000000000000000000000000000000000000000815260040161041a90610d08565b60405180910390fd5b7fa20844b5a535c011322625ae0480b648a7b40cede27cfd9fef1ddfd786a5a667600360003373ffffffffffffffffffffffffffffffffffffffff1673ffffffffffffffffffffffffffffffffffffffff1681526020019081526020016000206040516104909190610e21565b60405180910390a1600360003373ffffffffffffffffffffffffffffffffffffffff1673ffffffffffffffffffffffffffffffffffffffff16815260200190815260200160002080546104e290610d57565b80601f016020809104026020016040519081016040528092919081815260200182805461050e90610d57565b801561055b5780601f106105305761010080835404028352916020019161055b565b820191906000526020600020905b81548152906001019060200180831161053e57829003601f168201915b5050505050905090565b600560009054906101000a900473ffffffffffffffffffffffffffffffffffffffff1681565b6000600560009054906101000a900473ffffffffffffffffffffffffffffffffffffffff1673ffffffffffffffffffffffffffffffffffffffff163373ffffffffffffffffffffffffffffffffffffffff160361061d576040517f08c379a000000000000000000000000000000000000000000000000000000000815260040161061490610d08565b60405180910390fd5b60048260405161062d9190610ca5565b908152602001604051809103902060009054906101000a900460ff161561068f577fe18be9342ca44ff782744d7ca17812cdd4aa686f690025f99c8faf60564e8ff7600160405161067e9190610a7a565b60405180910390a1600190506106cc565b7fe18be9342ca44ff782744d7ca17812cdd4aa686f690025f99c8faf60564e8ff760006040516106bf9190610a7a565b60405180910390a1600090505b919050565b6000600560009054906101000a900473ffffffffffffffffffffffffffffffffffffffff1673ffffffffffffffffffffffffffffffffffffffff163373ffffffffffffffffffffffffffffffffffffffff1603610763576040517f08c379a000000000000000000000000000000000000000000000000000000000815260040161075a90610d08565b60405180910390fd5b6004826040516107739190610ca5565b908152602001604051809103902060009054906101000a900460ff161561087a576001600260003373ffffffffffffffffffffffffffffffffffffffff1673ffffffffffffffffffffffffffffffffffffffff16815260200190815260200160002060006101000a81548160ff02191690831515021790555081600360003373ffffffffffffffffffffffffffffffffffffffff1673ffffffffffffffffffffffffffffffffffffffff16815260200190815260200160002090816108389190610fe4565b507fe18be9342ca44ff782744d7ca17812cdd4aa686f690025f99c8faf60564e8ff760016040516108699190610a7a565b60405180910390a1600190506108b7565b7fe18be9342ca44ff782744d7ca17812cdd4aa686f690025f99c8faf60564e8ff760006040516108aa9190610a7a565b60405180910390a1600090505b919050565b6000604051905090565b600080fd5b600080fd5b600080fd5b600080fd5b6000601f19601f8301169050919050565b7f4e487b7100000000000000000000000000000000000000000000000000000000600052604160045260246000fd5b610923826108da565b810181811067ffffffffffffffff82111715610942576109416108eb565b5b80604052505050565b60006109556108bc565b9050610961828261091a565b919050565b600067ffffffffffffffff821115610981576109806108eb565b5b61098a826108da565b9050602081019050919050565b82818337600083830152505050565b60006109b96109b484610966565b61094b565b9050828152602081018484840111156109d5576109d46108d5565b5b6109e0848285610997565b509392505050565b600082601f8301126109fd576109fc6108d0565b5b8135610a0d8482602086016109a6565b91505092915050565b600060208284031215610a2c57610a2b6108c6565b5b600082013567ffffffffffffffff811115610a4a57610a496108cb565b5b610a56848285016109e8565b91505092915050565b60008115159050919050565b610a7481610a5f565b82525050565b6000602082019050610a8f6000830184610a6b565b92915050565b600073ffffffffffffffffffffffffffffffffffffffff82169050919050565b6000610ac082610a95565b9050919050565b610ad081610ab5565b8114610adb57600080fd5b50565b600081359050610aed81610ac7565b92915050565b600060208284031215610b0957610b086108c6565b5b6000610b1784828501610ade565b91505092915050565b600081519050919050565b600082825260208201905092915050565b60005b83811015610b5a578082015181840152602081019050610b3f565b60008484015250505050565b6000610b7182610b20565b610b7b8185610b2b565b9350610b8b818560208601610b3c565b610b94816108da565b840191505092915050565b60006020820190508181036000830152610bb98184610b66565b905092915050565b6000610bcc82610a95565b9050919050565b610bdc81610bc1565b82525050565b6000602082019050610bf76000830184610bd3565b92915050565b7f55736572206861766520746f2062652061646d696e0000000000000000000000600082015250565b6000610c33601583610b2b565b9150610c3e82610bfd565b602082019050919050565b60006020820190508181036000830152610c6281610c26565b9050919050565b600081905092915050565b6000610c7f82610b20565b610c898185610c69565b9350610c99818560208601610b3c565b80840191505092915050565b6000610cb18284610c74565b915081905092915050565b7f55736572206861766520746f20626520612073747564656e7400000000000000600082015250565b6000610cf2601983610b2b565b9150610cfd82610cbc565b602082019050919050565b60006020820190508181036000830152610d2181610ce5565b9050919050565b7f4e487b7100000000000000000000000000000000000000000000000000000000600052602260045260246000fd5b60006002820490506001821680610d6f57607f821691505b602082108103610d8257610d81610d28565b5b50919050565b60008190508160005260206000209050919050565b60008154610daa81610d57565b610db48186610b2b565b94506001821660008114610dcf5760018114610de557610e18565b60ff198316865281151560200286019350610e18565b610dee85610d88565b60005b83811015610e1057815481890152600182019150602081019050610df1565b808801955050505b50505092915050565b60006020820190508181036000830152610e3b8184610d9d565b905092915050565b60006020601f8301049050919050565b600082821b905092915050565b600060088302610e907fffffffffffffffffffffffffffffffffffffffffffffffffffffffffffffffff82610e53565b610e9a8683610e53565b95508019841693508086168417925050509392505050565b6000819050919050565b6000819050919050565b6000610ee1610edc610ed784610eb2565b610ebc565b610eb2565b9050919050565b6000819050919050565b610efb83610ec6565b610f0f610f0782610ee8565b848454610e60565b825550505050565b600090565b610f24610f17565b610f2f818484610ef2565b505050565b5b81811015610f5357610f48600082610f1c565b600181019050610f35565b5050565b601f821115610f9857610f6981610d88565b610f7284610e43565b81016020851015610f81578190505b610f95610f8d85610e43565b830182610f34565b50505b505050565b600082821c905092915050565b6000610fbb60001984600802610f9d565b1980831691505092915050565b6000610fd48383610faa565b9150826002028217905092915050565b610fed82610b20565b67ffffffffffffffff811115611006576110056108eb565b5b6110108254610d57565b61101b828285610f57565b600060209050601f83116001811461104e576000841561103c578287015190505b6110468582610fc8565b8655506110ae565b601f19841661105c86610d88565b60005b828110156110845784890151825560018201915060208501945060208101905061105f565b868310156110a1578489015161109d601f891682610faa565b8355505b6001600288020188555050505b50505050505056fea2646970667358221220256a70ed33c47537b0ca1b75e0bb6ad8debae1e8f3de90ed2db1156c126764c564736f6c63430008130033",
  "immutableReferences": {},
  "source": "// SPDX-License-Identifier: MIT\npragma solidity 0.8.19;\n\ncontract CertificateVerification {\n\n    event outputResult(bool);\n    event outputCid(string);\n    event outputHash(bool);\n\n    mapping(string => uint256) documentAddTimeMap; //contains when documents was added\n    mapping(string => address) documentAddKeyMap; //contains public key of the user\n    mapping(address => bool) verifiedUser; //contains verified users \n    mapping(address => string) userFilesCid; //contains user's ipfs\n    mapping(string => bool) hashValue;\n    address payable public owner;\n\n    constructor() {\n        owner = payable(msg.sender);\n    }\n\n    //setting the user who deployed this contract as owner\n    modifier owner_check(){\n        require(owner == msg.sender, \"User have to be admin\");\n        _;\n    }\n\n    //only student can verify files\n    modifier student_check(){\n        require(msg.sender != owner, \"User have to be a student\");\n        _;\n    }\n\n    //only owner can add files to the contract\n    function add_files(string memory ipfs_cid) public owner_check returns(bool){\n        if (!hashValue[ipfs_cid]) {\n            //add now\n            hashValue[ipfs_cid] = true;\n            emit outputResult(true);\n            return true;\n        }else{\n            emit outputResult(false);\n            return false;\n        }\n    }\n\n    //this will verify user's uploaded document\n    function verifyDocument(string memory ipfs_cid) public student_check returns(bool){\n       if(hashValue[ipfs_cid]){\n        emit outputResult(true);\n        return true;\n       }else{\n        emit outputResult(false);\n        return false;\n       }\n    }\n\n    //this is for verify and apply button\n    function verifyApplyDocument(string memory ipfs_cid) public student_check returns(bool){\n        if(hashValue[ipfs_cid]){\n            verifiedUser[msg.sender] = true;\n            userFilesCid[msg.sender] = ipfs_cid;\n            emit outputResult(true);\n            return true;\n        }\n        emit outputResult(false);\n        return false;\n    }\n\n    //give true to the verified files\n    function verified(address user) public view returns(bool){\n        if(verifiedUser[user]){\n            return verifiedUser[user];\n        }else{\n            return false;\n        }\n    }\n\n    //when the user will click university then his/her address will come here and return me the ipfs cid.. \n    function get_ipfs_cid() public student_check returns(string memory){\n        emit outputCid(userFilesCid[msg.sender]);\n        return userFilesCid[msg.sender];\n    }\n}\n",
  "sourcePath": "D:\\Blockchain Projects\\System Project\\document-verification-system-main\\contract\\contracts\\CertificateVerification.sol",
  "compiler": {
    "name": "solc",
    "version": "0.8.19+commit.7dd6d404.Emscripten.clang"
  },
  "schemaVersion": "3.4.14",
  "updatedAt": "2023-05-27T09:04:53.112Z",
  "networkType": "ethereum",
  "devdoc": {
    "kind": "dev",
    "methods": {},
    "version": 1
  },
  "userdoc": {
    "kind": "user",
    "methods": {},
    "version": 1
  }
}