{
  "contractName": "CertificateVerification",
  "abi": [
    {
      "inputs": [],
      "stateMutability": "nonpayable",
      "type": "constructor"
    },
    {
      "anonymous": false,
      "inputs": [
        {
          "indexed": false,
          "internalType": "string",
          "name": "",
          "type": "string"
        }
      ],
      "name": "outputCid",
      "type": "event"
    },
    {
      "anonymous": false,
      "inputs": [
        {
          "indexed": false,
          "internalType": "bool",
          "name": "",
          "type": "bool"
        }
      ],
      "name": "outputResult",
      "type": "event"
    },
    {
      "inputs": [],
      "name": "owner",
      "outputs": [
        {
          "internalType": "address payable",
          "name": "",
          "type": "address"
        }
      ],
      "stateMutability": "view",
      "type": "function",
      "constant": true
    },
    {
      "inputs": [
        {
          "internalType": "string",
          "name": "ipfs_cid",
          "type": "string"
        }
      ],
      "name": "add_files",
      "outputs": [
        {
          "internalType": "bool",
          "name": "",
          "type": "bool"
        }
      ],
      "stateMutability": "nonpayable",
      "type": "function"
    },
    {
      "inputs": [
        {
          "internalType": "string",
          "name": "ipfs_cid",
          "type": "string"
        }
      ],
      "name": "verifyDocument",
      "outputs": [
        {
          "internalType": "bool",
          "name": "",
          "type": "bool"
        }
      ],
      "stateMutability": "nonpayable",
      "type": "function"
    },
    {
      "inputs": [
        {
          "internalType": "string",
          "name": "ipfs_cid",
          "type": "string"
        }
      ],
      "name": "verifyApplyDocument",
      "outputs": [
        {
          "internalType": "bool",
          "name": "",
          "type": "bool"
        }
      ],
      "stateMutability": "nonpayable",
      "type": "function"
    },
    {
      "inputs": [
        {
          "internalType": "address",
          "name": "user",
          "type": "address"
        }
      ],
      "name": "verified",
      "outputs": [
        {
          "internalType": "bool",
          "name": "",
          "type": "bool"
        }
      ],
      "stateMutability": "view",
      "type": "function",
      "constant": true
    },
    {
      "inputs": [
        {
          "internalType": "address",
          "name": "user",
          "type": "address"
        }
      ],
      "name": "get_ipfs_cid",
      "outputs": [
        {
          "internalType": "string",
          "name": "",
          "type": "string"
        }
      ],
      "stateMutability": "nonpayable",
      "type": "function"
    }
  ],
  "bytecode": "0x608060405234801561001057600080fd5b5033600460006101000a81548173ffffffffffffffffffffffffffffffffffffffff021916908373ffffffffffffffffffffffffffffffffffffffff16021790555061112a806100616000396000f3fe608060405234801561001057600080fd5b50600436106100625760003560e01c80630a31b5f9146100675780630db065f4146100975780638da5cb5b146100c75780639cee96ce146100e5578063beee5eb714610115578063d1c26dc214610145575b600080fd5b610081600480360381019061007c9190610a54565b610175565b60405161008e9190610ab8565b60405180910390f35b6100b160048036038101906100ac9190610b31565b6102d9565b6040516100be9190610ab8565b60405180910390f35b6100cf61038b565b6040516100dc9190610b7f565b60405180910390f35b6100ff60048036038101906100fa9190610b31565b6103b1565b60405161010c9190610c19565b60405180910390f35b61012f600480360381019061012a9190610a54565b610587565b60405161013c9190610ab8565b60405180910390f35b61015f600480360381019061015a9190610a54565b61071a565b60405161016c9190610ab8565b60405180910390f35b60003373ffffffffffffffffffffffffffffffffffffffff16600460009054906101000a900473ffffffffffffffffffffffffffffffffffffffff1673ffffffffffffffffffffffffffffffffffffffff1614610207576040517f08c379a00000000000000000000000000000000000000000000000000000000081526004016101fe90610c87565b60405180910390fd5b600080836040516102189190610ce3565b908152602001604051809103902054111561026e577fe18be9342ca44ff782744d7ca17812cdd4aa686f690025f99c8faf60564e8ff7600060405161025d9190610ab8565b60405180910390a1600090506102d4565b6000429050806000846040516102849190610ce3565b9081526020016040518091039020819055507fe18be9342ca44ff782744d7ca17812cdd4aa686f690025f99c8faf60564e8ff760016040516102c69190610ab8565b60405180910390a160019150505b919050565b6000600260008373ffffffffffffffffffffffffffffffffffffffff1673ffffffffffffffffffffffffffffffffffffffff16815260200190815260200160002060009054906101000a900460ff161561038157600260008373ffffffffffffffffffffffffffffffffffffffff1673ffffffffffffffffffffffffffffffffffffffff16815260200190815260200160002060009054906101000a900460ff169050610386565b600090505b919050565b600460009054906101000a900473ffffffffffffffffffffffffffffffffffffffff1681565b6060600460009054906101000a900473ffffffffffffffffffffffffffffffffffffffff1673ffffffffffffffffffffffffffffffffffffffff163373ffffffffffffffffffffffffffffffffffffffff1603610443576040517f08c379a000000000000000000000000000000000000000000000000000000000815260040161043a90610d46565b60405180910390fd5b7fa20844b5a535c011322625ae0480b648a7b40cede27cfd9fef1ddfd786a5a667600360008473ffffffffffffffffffffffffffffffffffffffff1673ffffffffffffffffffffffffffffffffffffffff1681526020019081526020016000206040516104b09190610e5f565b60405180910390a1600360008373ffffffffffffffffffffffffffffffffffffffff1673ffffffffffffffffffffffffffffffffffffffff168152602001908152602001600020805461050290610d95565b80601f016020809104026020016040519081016040528092919081815260200182805461052e90610d95565b801561057b5780601f106105505761010080835404028352916020019161057b565b820191906000526020600020905b81548152906001019060200180831161055e57829003601f168201915b50505050509050919050565b6000600460009054906101000a900473ffffffffffffffffffffffffffffffffffffffff1673ffffffffffffffffffffffffffffffffffffffff163373ffffffffffffffffffffffffffffffffffffffff1603610619576040517f08c379a000000000000000000000000000000000000000000000000000000000815260040161061090610d46565b60405180910390fd5b6000808360405161062a9190610ce3565b90815260200160405180910390205411156106d8576001600260003373ffffffffffffffffffffffffffffffffffffffff1673ffffffffffffffffffffffffffffffffffffffff16815260200190815260200160002060006101000a81548160ff0219169083151502179055507fe18be9342ca44ff782744d7ca17812cdd4aa686f690025f99c8faf60564e8ff760016040516106c79190610ab8565b60405180910390a160019050610715565b7fe18be9342ca44ff782744d7ca17812cdd4aa686f690025f99c8faf60564e8ff760006040516107089190610ab8565b60405180910390a1600090505b919050565b6000600460009054906101000a900473ffffffffffffffffffffffffffffffffffffffff1673ffffffffffffffffffffffffffffffffffffffff163373ffffffffffffffffffffffffffffffffffffffff16036107ac576040517f08c379a00000000000000000000000000000000000000000000000000000000081526004016107a390610d46565b60405180910390fd5b600080836040516107bd9190610ce3565b90815260200160405180910390205411156108b8576001600260003373ffffffffffffffffffffffffffffffffffffffff1673ffffffffffffffffffffffffffffffffffffffff16815260200190815260200160002060006101000a81548160ff02191690831515021790555081600360003373ffffffffffffffffffffffffffffffffffffffff1673ffffffffffffffffffffffffffffffffffffffff16815260200190815260200160002090816108769190611022565b507fe18be9342ca44ff782744d7ca17812cdd4aa686f690025f99c8faf60564e8ff760016040516108a79190610ab8565b60405180910390a1600190506108f5565b7fe18be9342ca44ff782744d7ca17812cdd4aa686f690025f99c8faf60564e8ff760006040516108e89190610ab8565b60405180910390a1600090505b919050565b6000604051905090565b600080fd5b600080fd5b600080fd5b600080fd5b6000601f19601f8301169050919050565b7f4e487b7100000000000000000000000000000000000000000000000000000000600052604160045260246000fd5b61096182610918565b810181811067ffffffffffffffff821117156109805761097f610929565b5b80604052505050565b60006109936108fa565b905061099f8282610958565b919050565b600067ffffffffffffffff8211156109bf576109be610929565b5b6109c882610918565b9050602081019050919050565b82818337600083830152505050565b60006109f76109f2846109a4565b610989565b905082815260208101848484011115610a1357610a12610913565b5b610a1e8482856109d5565b509392505050565b600082601f830112610a3b57610a3a61090e565b5b8135610a4b8482602086016109e4565b91505092915050565b600060208284031215610a6a57610a69610904565b5b600082013567ffffffffffffffff811115610a8857610a87610909565b5b610a9484828501610a26565b91505092915050565b60008115159050919050565b610ab281610a9d565b82525050565b6000602082019050610acd6000830184610aa9565b92915050565b600073ffffffffffffffffffffffffffffffffffffffff82169050919050565b6000610afe82610ad3565b9050919050565b610b0e81610af3565b8114610b1957600080fd5b50565b600081359050610b2b81610b05565b92915050565b600060208284031215610b4757610b46610904565b5b6000610b5584828501610b1c565b91505092915050565b6000610b6982610ad3565b9050919050565b610b7981610b5e565b82525050565b6000602082019050610b946000830184610b70565b92915050565b600081519050919050565b600082825260208201905092915050565b60005b83811015610bd4578082015181840152602081019050610bb9565b60008484015250505050565b6000610beb82610b9a565b610bf58185610ba5565b9350610c05818560208601610bb6565b610c0e81610918565b840191505092915050565b60006020820190508181036000830152610c338184610be0565b905092915050565b7f53656e646572206973206e6f74206f776e657200000000000000000000000000600082015250565b6000610c71601383610ba5565b9150610c7c82610c3b565b602082019050919050565b60006020820190508181036000830152610ca081610c64565b9050919050565b600081905092915050565b6000610cbd82610b9a565b610cc78185610ca7565b9350610cd7818560208601610bb6565b80840191505092915050565b6000610cef8284610cb2565b915081905092915050565b7f53656e646572206861766520746f20626520612073747564656e740000000000600082015250565b6000610d30601b83610ba5565b9150610d3b82610cfa565b602082019050919050565b60006020820190508181036000830152610d5f81610d23565b9050919050565b7f4e487b7100000000000000000000000000000000000000000000000000000000600052602260045260246000fd5b60006002820490506001821680610dad57607f821691505b602082108103610dc057610dbf610d66565b5b50919050565b60008190508160005260206000209050919050565b60008154610de881610d95565b610df28186610ba5565b94506001821660008114610e0d5760018114610e2357610e56565b60ff198316865281151560200286019350610e56565b610e2c85610dc6565b60005b83811015610e4e57815481890152600182019150602081019050610e2f565b808801955050505b50505092915050565b60006020820190508181036000830152610e798184610ddb565b905092915050565b60006020601f8301049050919050565b600082821b905092915050565b600060088302610ece7fffffffffffffffffffffffffffffffffffffffffffffffffffffffffffffffff82610e91565b610ed88683610e91565b95508019841693508086168417925050509392505050565b6000819050919050565b6000819050919050565b6000610f1f610f1a610f1584610ef0565b610efa565b610ef0565b9050919050565b6000819050919050565b610f3983610f04565b610f4d610f4582610f26565b848454610e9e565b825550505050565b600090565b610f62610f55565b610f6d818484610f30565b505050565b5b81811015610f9157610f86600082610f5a565b600181019050610f73565b5050565b601f821115610fd657610fa781610dc6565b610fb084610e81565b81016020851015610fbf578190505b610fd3610fcb85610e81565b830182610f72565b50505b505050565b600082821c905092915050565b6000610ff960001984600802610fdb565b1980831691505092915050565b60006110128383610fe8565b9150826002028217905092915050565b61102b82610b9a565b67ffffffffffffffff81111561104457611043610929565b5b61104e8254610d95565b611059828285610f95565b600060209050601f83116001811461108c576000841561107a578287015190505b6110848582611006565b8655506110ec565b601f19841661109a86610dc6565b60005b828110156110c25784890151825560018201915060208501945060208101905061109d565b868310156110df57848901516110db601f891682610fe8565b8355505b6001600288020188555050505b50505050505056fea264697066735822122014027bffae332ba07c47949eaad811cf6825a56d6954beaa35338e3537f3906f64736f6c63430008110033",
  "immutableReferences": {},
  "source": "// SPDX-License-Identifier: MIT\r\npragma solidity >=0.4.1;\r\n\r\ncontract CertificateVerification {\r\n\r\n    event outputResult(bool);\r\n    event outputCid(string);\r\n\r\n    mapping(string => uint256) documentAddTimeMap; //contains when documents was added\r\n    mapping(string => address) documentAddKeyMap; //contains public key of the user\r\n    mapping(address => bool) verifiedUser; //contains verified users \r\n    mapping(address => string) userFilesCid; //contains user's ipfs\r\n    address payable public owner;\r\n\r\n    constructor() {\r\n        owner = payable(msg.sender);\r\n    }\r\n\r\n    //setting the user who deployed this contract as owner\r\n    modifier owner_check(){\r\n        require(owner == msg.sender, \"Sender is not owner\");\r\n        _;\r\n    }\r\n\r\n    //only student can verify files\r\n    modifier student_check(){\r\n        require(msg.sender != owner, \"Sender have to be a student\");\r\n        _;\r\n    }\r\n\r\n    //only owner can add files to the contract\r\n    function add_files(string memory ipfs_cid) public owner_check returns(bool){\r\n        if (documentAddTimeMap[ipfs_cid] > 0) {\r\n            emit outputResult(false);\r\n            return false;\r\n        }\r\n        //add now\r\n        uint256 timeAdded = block.timestamp;\r\n        documentAddTimeMap[ipfs_cid] = timeAdded;\r\n        emit outputResult(true);\r\n        return true;\r\n    }\r\n\r\n    //this will verify user's uploaded document\r\n    function verifyDocument(string memory ipfs_cid) public student_check returns(bool){\r\n        if (documentAddTimeMap[ipfs_cid] > 0) {\r\n            verifiedUser[msg.sender] = true;\r\n            emit outputResult(true);\r\n            return true;\r\n        }\r\n        emit outputResult(false);\r\n        return false;\r\n    }\r\n\r\n    //this is for verify and apply button\r\n    function verifyApplyDocument(string memory ipfs_cid) public student_check returns(bool){\r\n        if (documentAddTimeMap[ipfs_cid] > 0) {\r\n            verifiedUser[msg.sender] = true;\r\n            userFilesCid[msg.sender] = ipfs_cid;\r\n            emit outputResult(true);\r\n            return true;\r\n        }\r\n        emit outputResult(false);\r\n        return false;\r\n    }\r\n\r\n    //give true to the verified files\r\n    function verified(address user) public view returns(bool){\r\n        if(verifiedUser[user]){\r\n            return verifiedUser[user];\r\n        }else{\r\n            return false;\r\n        }\r\n    }\r\n\r\n    //when the user will click university then his/her address will come here and return me the ipfs cid.. \r\n    function get_ipfs_cid(address user) public student_check returns(string memory){\r\n        emit outputCid(userFilesCid[user]);\r\n        return userFilesCid[user];\r\n    }\r\n}\r\n",
  "sourcePath": "D:\\Blockchain Development\\System Project\\document-verification-system\\contract\\contracts\\CertificateVerification.sol",
  "compiler": {
    "name": "solc",
    "version": "0.8.17+commit.8df45f5f.Emscripten.clang"
  },
  "schemaVersion": "3.4.10",
  "updatedAt": "2022-12-24T19:40:42.903Z",
  "networkType": "ethereum",
  "devdoc": {
    "kind": "dev",
    "methods": {},
    "version": 1
  },
  "userdoc": {
    "kind": "user",
    "methods": {},
    "version": 1
  }
}